{"project/contracts/count.sol":{"Count":{"abi":[{"inputs":[],"name":"dec","outputs":[{"internalType":"int256","name":"","type":"int256"}],"stateMutability":"nonpayable","type":"function"},{"inputs":[],"name":"inc","outputs":[{"internalType":"int256","name":"","type":"int256"}],"stateMutability":"nonpayable","type":"function"},{"inputs":[],"name":"showNum","outputs":[{"internalType":"int256","name":"","type":"int256"}],"stateMutability":"view","type":"function"}],"evm":{"bytecode":{"linkReferences":{},"object":"6080604052348015600e575f5ffd5b506101008061001c5f395ff3fe6080604052348015600e575f5ffd5b5060043610603a575f3560e01c80631c8763e114603e578063371303c0146053578063b3bcfa82146059575b5f5ffd5b5f545b60405190815260200160405180910390f35b6041605f565b60416077565b5f80548180606b836097565b91905055505f54905090565b5f80548180606b8360b2565b634e487b7160e01b5f52601160045260245ffd5b5f6001600160ff1b01820160ab5760ab6083565b5060010190565b5f600160ff1b820160c35760c36083565b505f19019056fea264697066735822122079fade75699eb45ecfaa4b3110c9e1b765e00ae0a15c600c65dd9272946f176164736f6c634300081c0033","opcodes":"PUSH1 0x80 PUSH1 0x40 MSTORE CALLVALUE DUP1 ISZERO PUSH1 0xE JUMPI PUSH0 PUSH0 REVERT JUMPDEST POP PUSH2 0x100 DUP1 PUSH2 0x1C PUSH0 CODECOPY PUSH0 RETURN INVALID PUSH1 0x80 PUSH1 0x40 MSTORE CALLVALUE DUP1 ISZERO PUSH1 0xE JUMPI PUSH0 PUSH0 REVERT JUMPDEST POP PUSH1 0x4 CALLDATASIZE LT PUSH1 0x3A JUMPI PUSH0 CALLDATALOAD PUSH1 0xE0 SHR DUP1 PUSH4 0x1C8763E1 EQ PUSH1 0x3E JUMPI DUP1 PUSH4 0x371303C0 EQ PUSH1 0x53 JUMPI DUP1 PUSH4 0xB3BCFA82 EQ PUSH1 0x59 JUMPI JUMPDEST PUSH0 PUSH0 REVERT JUMPDEST PUSH0 SLOAD JUMPDEST PUSH1 0x40 MLOAD SWAP1 DUP2 MSTORE PUSH1 0x20 ADD PUSH1 0x40 MLOAD DUP1 SWAP2 SUB SWAP1 RETURN JUMPDEST PUSH1 0x41 PUSH1 0x5F JUMP JUMPDEST PUSH1 0x41 PUSH1 0x77 JUMP JUMPDEST PUSH0 DUP1 SLOAD DUP2 DUP1 PUSH1 0x6B DUP4 PUSH1 0x97 JUMP JUMPDEST SWAP2 SWAP1 POP SSTORE POP PUSH0 SLOAD SWAP1 POP SWAP1 JUMP JUMPDEST PUSH0 DUP1 SLOAD DUP2 DUP1 PUSH1 0x6B DUP4 PUSH1 0xB2 JUMP JUMPDEST PUSH4 0x4E487B71 PUSH1 0xE0 SHL PUSH0 MSTORE PUSH1 0x11 PUSH1 0x4 MSTORE PUSH1 0x24 PUSH0 REVERT JUMPDEST PUSH0 PUSH1 0x1 PUSH1 0x1 PUSH1 0xFF SHL ADD DUP3 ADD PUSH1 0xAB JUMPI PUSH1 0xAB PUSH1 0x83 JUMP JUMPDEST POP PUSH1 0x1 ADD SWAP1 JUMP JUMPDEST PUSH0 PUSH1 0x1 PUSH1 0xFF SHL DUP3 ADD PUSH1 0xC3 JUMPI PUSH1 0xC3 PUSH1 0x83 JUMP JUMPDEST POP PUSH0 NOT ADD SWAP1 JUMP INVALID LOG2 PUSH5 0x6970667358 0x22 SLT KECCAK256 PUSH26 0xFADE75699EB45ECFAA4B3110C9E1B765E00AE0A15C600C65DD92 PUSH19 0x946F176164736F6C634300081C003300000000 "},"methodIdentifiers":{"dec()":"b3bcfa82","inc()":"371303c0","showNum()":"1c8763e1"}}}}}